{
  "_format": "hh-sol-artifact-1",
  "contractName": "SolDisc",
  "sourceName": "contracts/SolDisc.sol",
  "abi": [
    {
      "inputs": [
        {
          "internalType": "address",
          "name": "",
          "type": "address"
        }
      ],
      "name": "accounts",
      "outputs": [
        {
          "internalType": "string",
          "name": "name",
          "type": "string"
        },
        {
          "internalType": "string",
          "name": "bio",
          "type": "string"
        },
        {
          "internalType": "uint256",
          "name": "creationDate",
          "type": "uint256"
        }
      ],
      "stateMutability": "view",
      "type": "function"
    },
    {
      "inputs": [
        {
          "internalType": "uint256",
          "name": "",
          "type": "uint256"
        }
      ],
      "name": "addressRegistry",
      "outputs": [
        {
          "internalType": "address",
          "name": "",
          "type": "address"
        }
      ],
      "stateMutability": "view",
      "type": "function"
    },
    {
      "inputs": [
        {
          "internalType": "bytes32",
          "name": "postHash",
          "type": "bytes32"
        },
        {
          "internalType": "string",
          "name": "text",
          "type": "string"
        }
      ],
      "name": "commentOnPost",
      "outputs": [],
      "stateMutability": "nonpayable",
      "type": "function"
    },
    {
      "inputs": [
        {
          "internalType": "bytes32",
          "name": "",
          "type": "bytes32"
        }
      ],
      "name": "commentRegistry",
      "outputs": [
        {
          "internalType": "address",
          "name": "user",
          "type": "address"
        },
        {
          "internalType": "uint256",
          "name": "creationDate",
          "type": "uint256"
        },
        {
          "internalType": "uint256",
          "name": "editDate",
          "type": "uint256"
        },
        {
          "internalType": "uint256",
          "name": "numLikes",
          "type": "uint256"
        },
        {
          "internalType": "string",
          "name": "text",
          "type": "string"
        },
        {
          "internalType": "bool",
          "name": "liked",
          "type": "bool"
        },
        {
          "internalType": "string",
          "name": "userName",
          "type": "string"
        }
      ],
      "stateMutability": "view",
      "type": "function"
    },
    {
      "inputs": [
        {
          "internalType": "string",
          "name": "name",
          "type": "string"
        },
        {
          "internalType": "string",
          "name": "bio",
          "type": "string"
        },
        {
          "internalType": "bytes32",
          "name": "postHash",
          "type": "bytes32"
        },
        {
          "internalType": "string",
          "name": "text",
          "type": "string"
        }
      ],
      "name": "createAccountAndComment",
      "outputs": [],
      "stateMutability": "nonpayable",
      "type": "function"
    },
    {
      "inputs": [
        {
          "internalType": "string",
          "name": "name",
          "type": "string"
        },
        {
          "internalType": "string",
          "name": "bio",
          "type": "string"
        }
      ],
      "name": "createOrEditAccount",
      "outputs": [],
      "stateMutability": "nonpayable",
      "type": "function"
    },
    {
      "inputs": [
        {
          "internalType": "bytes32",
          "name": "postHash",
          "type": "bytes32"
        },
        {
          "internalType": "uint256",
          "name": "commentId",
          "type": "uint256"
        },
        {
          "internalType": "string",
          "name": "text",
          "type": "string"
        }
      ],
      "name": "editComment",
      "outputs": [],
      "stateMutability": "nonpayable",
      "type": "function"
    },
    {
      "inputs": [
        {
          "internalType": "bytes32",
          "name": "postHash",
          "type": "bytes32"
        },
        {
          "internalType": "address",
          "name": "user",
          "type": "address"
        }
      ],
      "name": "getCommentsByPost",
      "outputs": [
        {
          "components": [
            {
              "internalType": "address",
              "name": "user",
              "type": "address"
            },
            {
              "internalType": "uint256",
              "name": "creationDate",
              "type": "uint256"
            },
            {
              "internalType": "uint256",
              "name": "editDate",
              "type": "uint256"
            },
            {
              "internalType": "uint256",
              "name": "numLikes",
              "type": "uint256"
            },
            {
              "internalType": "string",
              "name": "text",
              "type": "string"
            },
            {
              "internalType": "bool",
              "name": "liked",
              "type": "bool"
            },
            {
              "internalType": "string",
              "name": "userName",
              "type": "string"
            }
          ],
          "internalType": "struct SolDisc.Comment[]",
          "name": "",
          "type": "tuple[]"
        }
      ],
      "stateMutability": "view",
      "type": "function"
    },
    {
      "inputs": [
        {
          "internalType": "address",
          "name": "user",
          "type": "address"
        }
      ],
      "name": "getCommentsByUser",
      "outputs": [
        {
          "components": [
            {
              "internalType": "address",
              "name": "user",
              "type": "address"
            },
            {
              "internalType": "uint256",
              "name": "creationDate",
              "type": "uint256"
            },
            {
              "internalType": "uint256",
              "name": "editDate",
              "type": "uint256"
            },
            {
              "internalType": "uint256",
              "name": "numLikes",
              "type": "uint256"
            },
            {
              "internalType": "string",
              "name": "text",
              "type": "string"
            },
            {
              "internalType": "bool",
              "name": "liked",
              "type": "bool"
            },
            {
              "internalType": "string",
              "name": "userName",
              "type": "string"
            }
          ],
          "internalType": "struct SolDisc.Comment[]",
          "name": "",
          "type": "tuple[]"
        }
      ],
      "stateMutability": "view",
      "type": "function"
    },
    {
      "inputs": [],
      "name": "getNumRegisteredUsers",
      "outputs": [
        {
          "internalType": "uint256",
          "name": "",
          "type": "uint256"
        }
      ],
      "stateMutability": "view",
      "type": "function"
    },
    {
      "inputs": [
        {
          "internalType": "bytes32",
          "name": "postHash",
          "type": "bytes32"
        },
        {
          "internalType": "uint256",
          "name": "commentId",
          "type": "uint256"
        }
      ],
      "name": "toggleLikeComment",
      "outputs": [],
      "stateMutability": "nonpayable",
      "type": "function"
    },
    {
      "inputs": [
        {
          "internalType": "bytes32",
          "name": "",
          "type": "bytes32"
        }
      ],
      "name": "userNameRegistry",
      "outputs": [
        {
          "internalType": "address",
          "name": "",
          "type": "address"
        }
      ],
      "stateMutability": "view",
      "type": "function"
    }
  ],
  "bytecode": "0x608060405234801561001057600080fd5b50612025806100206000396000f3fe608060405234801561001057600080fd5b50600436106100d45760003560e01c806374fde44c116100815780639e78b8a61161005b5780639e78b8a614610206578063a97fb21614610219578063e96716ee1461022a57600080fd5b806374fde44c1461017257806385979950146101985780639c1bbbb2146101f357600080fd5b80634835e5b0116100b25780634835e5b01461012a5780635e5c06e21461013d578063704b7f921461015f57600080fd5b806317e4c841146100d95780633d75fb84146101025780634701a5f514610117575b600080fd5b6100ec6100e736600461193b565b61023d565b6040516100f991906119d2565b60405180910390f35b610115610110366004611b0e565b6102b1565b005b610115610125366004611b5a565b6105a5565b610115610138366004611bc6565b6108d4565b61015061014b366004611c6a565b6108f4565b6040516100f993929190611c85565b61011561016d366004611cbb565b610a26565b610185610180366004611d02565b610b69565b6040516100f99796959493929190611d1b565b6101ce6101a6366004611d02565b60016020526000908152604090205473ffffffffffffffffffffffffffffffffffffffff1681565b60405173ffffffffffffffffffffffffffffffffffffffff90911681526020016100f9565b610115610201366004611d84565b610cd8565b6100ec610214366004611c6a565b610eaa565b6000546040519081526020016100f9565b6101ce610238366004611d02565b610f4a565b60606102aa6004600085815260200190815260200160002080548060200260200160405190810160405280929190818152602001828054801561029f57602002820191906000526020600020905b81548152602001906001019080831161028b575b505050505083610f81565b9392505050565b33600090815260036020526040812080546102cb90611da6565b905011610339576040517f08c379a000000000000000000000000000000000000000000000000000000000815260206004820152601560248201527f555345525f4143434f554e545f5245515549524544000000000000000000000060448201526064015b60405180910390fd5b818160048111801561034c57506103e881105b6103b2576040517f08c379a000000000000000000000000000000000000000000000000000000000815260206004820152600f60248201527f494e56414c49445f434f4d4d454e5400000000000000000000000000000000006044820152606401610330565b600085815260046020526040812054906103f38783604080516020808201949094528082019290925280518083038201815260609092019052805191012090565b90506040518060e001604052803373ffffffffffffffffffffffffffffffffffffffff168152602001428152602001600081526020016000815260200187878080601f0160208091040260200160405190810160405280939291908181526020018383808284376000920182905250938552505050602080830182905260408051808301825283815293810193909352848252600280825291839020845181547fffffffffffffffffffffffff00000000000000000000000000000000000000001673ffffffffffffffffffffffffffffffffffffffff9091161781558482015160018201559284015191830191909155606083015160038301556080830151805161050592600485019201906117e7565b5060a08201516005820180547fffffffffffffffffffffffffffffffffffffffffffffffffffffffffffffff001691151591909117905560c082015180516105579160068401916020909101906117e7565b5050506000968752600460209081526040808920805460018181018355918b52838b2001849055338a526003808452918a209091018054918201815589529720909601959095555050505050565b6105b38484600360146113f9565b610619576040517f08c379a000000000000000000000000000000000000000000000000000000000815260206004820152600c60248201527f494e56414c49445f4e414d4500000000000000000000000000000000000000006044820152606401610330565b80156106895760968110610689576040517f08c379a000000000000000000000000000000000000000000000000000000000815260206004820152600b60248201527f494e56414c49445f42494f0000000000000000000000000000000000000000006044820152606401610330565b6000848460405160200161069e929190611dfa565b604080517fffffffffffffffffffffffffffffffffffffffffffffffffffffffffffffffe081840301815291815281516020928301206000818152600190935291205490915073ffffffffffffffffffffffffffffffffffffffff1680158061071c575073ffffffffffffffffffffffffffffffffffffffff811633145b610782576040517f08c379a000000000000000000000000000000000000000000000000000000000815260206004820152601760248201527f555345525f4e414d455f414c52454144595f54414b454e0000000000000000006044820152606401610330565b600082815260016020908152604080832080547fffffffffffffffffffffffff00000000000000000000000000000000000000001633908117909155835260039091529020600281015461083257426002820155600080546001810182559080527f290decd9548b62a8d60345a988386fc84ba6bc95484008f6362f93160ef3e5630180547fffffffffffffffffffffffff000000000000000000000000000000000000000016331790556108b0565b604051600090610846908390602001611e0a565b604080517fffffffffffffffffffffffffffffffffffffffffffffffffffffffffffffffe0818403018152918152815160209283012060009081526001909252902080547fffffffffffffffffffffffff0000000000000000000000000000000000000000169055505b6108bb81888861186b565b506108ca60018201868661186b565b5050505050505050565b6108e0878787876105a5565b6108eb8383836102b1565b50505050505050565b60036020526000908152604090208054819061090f90611da6565b80601f016020809104026020016040519081016040528092919081815260200182805461093b90611da6565b80156109885780601f1061095d57610100808354040283529160200191610988565b820191906000526020600020905b81548152906001019060200180831161096b57829003601f168201915b50505050509080600101805461099d90611da6565b80601f01602080910402602001604051908101604052809291908181526020018280546109c990611da6565b8015610a165780601f106109eb57610100808354040283529160200191610a16565b820191906000526020600020905b8154815290600101906020018083116109f957829003601f168201915b5050505050908060020154905083565b8181600481118015610a3957506103e881105b610a9f576040517f08c379a000000000000000000000000000000000000000000000000000000000815260206004820152600f60248201527f494e56414c49445f434f4d4d454e5400000000000000000000000000000000006044820152606401610330565b604080516020808201899052818301889052825180830384018152606090920183528151918101919091206000908152600290915220805473ffffffffffffffffffffffffffffffffffffffff163314610b55576040517f08c379a000000000000000000000000000000000000000000000000000000000815260206004820152601360248201527f4e4f545f434f4d4d454e545f43524541544f52000000000000000000000000006044820152606401610330565b4260028201556108ca60048201868661186b565b60026020819052600091825260409091208054600182015492820154600383015460048401805473ffffffffffffffffffffffffffffffffffffffff90941695949293919291610bb890611da6565b80601f0160208091040260200160405190810160405280929190818152602001828054610be490611da6565b8015610c315780601f10610c0657610100808354040283529160200191610c31565b820191906000526020600020905b815481529060010190602001808311610c1457829003601f168201915b5050506005840154600685018054949560ff909216949193509150610c5590611da6565b80601f0160208091040260200160405190810160405280929190818152602001828054610c8190611da6565b8015610cce5780601f10610ca357610100808354040283529160200191610cce565b820191906000526020600020905b815481529060010190602001808311610cb157829003601f168201915b5050505050905087565b3360009081526003602052604081208054610cf290611da6565b905011610d5b576040517f08c379a000000000000000000000000000000000000000000000000000000000815260206004820152601560248201527f555345525f4143434f554e545f524551554952454400000000000000000000006044820152606401610330565b60408051602080820185905281830184905282518083038401815260609092019092528051910120600090600081815260026020526040902080549192509073ffffffffffffffffffffffffffffffffffffffff16331415610e19576040517f08c379a000000000000000000000000000000000000000000000000000000000815260206004820152601760248201527f43414e4e4f545f4c494b455f4f574e5f434f4d4d454e540000000000000000006044820152606401610330565b33600090815260036020908152604080832085845260048101909252909120805460ff8116157fffffffffffffffffffffffffffffffffffffffffffffffffffffffffffffff0090911681179091558015610e8a57600383018054906000610e8083611f0c565b9190505550610ea2565b600383018054906000610e9c83611f45565b91905055505b505050505050565b6060610f44600360008473ffffffffffffffffffffffffffffffffffffffff1673ffffffffffffffffffffffffffffffffffffffff16815260200190815260200160002060030180548060200260200160405190810160405280929190818152602001828054801561029f576020028201919060005260206000209081548152602001906001019080831161028b57505050505083610f81565b92915050565b60008181548110610f5a57600080fd5b60009182526020909120015473ffffffffffffffffffffffffffffffffffffffff16905081565b60606000835167ffffffffffffffff811115610f9f57610f9f611f7a565b60405190808252806020026020018201604052801561102857816020015b6110156040518060e00160405280600073ffffffffffffffffffffffffffffffffffffffff16815260200160008152602001600081526020016000815260200160608152602001600015158152602001606081525090565b815260200190600190039081610fbd5790505b50905060005b84518110156113f1576002600086838151811061104d5761104d611fa9565b602002602001015181526020019081526020016000206040518060e00160405290816000820160009054906101000a900473ffffffffffffffffffffffffffffffffffffffff1673ffffffffffffffffffffffffffffffffffffffff1673ffffffffffffffffffffffffffffffffffffffff1681526020016001820154815260200160028201548152602001600382015481526020016004820180546110f290611da6565b80601f016020809104026020016040519081016040528092919081815260200182805461111e90611da6565b801561116b5780601f106111405761010080835404028352916020019161116b565b820191906000526020600020905b81548152906001019060200180831161114e57829003601f168201915b5050509183525050600582015460ff161515602082015260068201805460409092019161119790611da6565b80601f01602080910402602001604051908101604052809291908181526020018280546111c390611da6565b80156112105780601f106111e557610100808354040283529160200191611210565b820191906000526020600020905b8154815290600101906020018083116111f357829003601f168201915b50505050508152505082828151811061122b5761122b611fa9565b60200260200101819052506003600083838151811061124c5761124c611fa9565b60200260200101516000015173ffffffffffffffffffffffffffffffffffffffff1673ffffffffffffffffffffffffffffffffffffffff16815260200190815260200160002060000180546112a090611da6565b80601f01602080910402602001604051908101604052809291908181526020018280546112cc90611da6565b80156113195780601f106112ee57610100808354040283529160200191611319565b820191906000526020600020905b8154815290600101906020018083116112fc57829003601f168201915b505050505082828151811061133057611330611fa9565b602002602001015160c00181905250600360008573ffffffffffffffffffffffffffffffffffffffff1673ffffffffffffffffffffffffffffffffffffffff168152602001908152602001600020600401600086838151811061139557611395611fa9565b6020026020010151815260200190815260200160002060009054906101000a900460ff168282815181106113cb576113cb611fa9565b602090810291909101015190151560a090910152806113e981611f0c565b91505061102e565b509392505050565b60008085858080601f01602080910402602001604051908101604052809392919081815260200183838082843760009201919091525050825192935050508411806114445750828151115b156114535760009150506117df565b8060008151811061146657611466611fa9565b6020910101517fff00000000000000000000000000000000000000000000000000000000000000167f200000000000000000000000000000000000000000000000000000000000000014156114bf5760009150506117df565b80600182516114ce9190611fd8565b815181106114de576114de611fa9565b6020910101517fff00000000000000000000000000000000000000000000000000000000000000167f200000000000000000000000000000000000000000000000000000000000000014156115375760009150506117df565b60008160008151811061154c5761154c611fa9565b01602001517fff0000000000000000000000000000000000000000000000000000000000000016905060005b82518110156117d757600083828151811061159557611595611fa9565b01602001517fff000000000000000000000000000000000000000000000000000000000000001690507f60000000000000000000000000000000000000000000000000000000000000008111801561162e57507f7b000000000000000000000000000000000000000000000000000000000000007fff000000000000000000000000000000000000000000000000000000000000008216105b8061167a57507f20000000000000000000000000000000000000000000000000000000000000007fff000000000000000000000000000000000000000000000000000000000000008216145b8061171257507f40000000000000000000000000000000000000000000000000000000000000007fff00000000000000000000000000000000000000000000000000000000000000821611801561171257507f5b000000000000000000000000000000000000000000000000000000000000007fff000000000000000000000000000000000000000000000000000000000000008216105b806117aa57507f2f000000000000000000000000000000000000000000000000000000000000007fff0000000000000000000000000000000000000000000000000000000000000082161180156117aa57507f3a000000000000000000000000000000000000000000000000000000000000007fff000000000000000000000000000000000000000000000000000000000000008216105b156117b7578092506117c4565b60009450505050506117df565b50806117cf81611f0c565b915050611578565b506001925050505b949350505050565b8280546117f390611da6565b90600052602060002090601f016020900481019282611815576000855561185b565b82601f1061182e57805160ff191683800117855561185b565b8280016001018555821561185b579182015b8281111561185b578251825591602001919060010190611840565b506118679291506118fd565b5090565b82805461187790611da6565b90600052602060002090601f016020900481019282611899576000855561185b565b82601f106118d0578280017fffffffffffffffffffffffffffffffffffffffffffffffffffffffffffffff0082351617855561185b565b8280016001018555821561185b579182015b8281111561185b5782358255916020019190600101906118e2565b5b8082111561186757600081556001016118fe565b803573ffffffffffffffffffffffffffffffffffffffff8116811461193657600080fd5b919050565b6000806040838503121561194e57600080fd5b8235915061195e60208401611912565b90509250929050565b6000815180845260005b8181101561198d57602081850181015186830182015201611971565b8181111561199f576000602083870101525b50601f017fffffffffffffffffffffffffffffffffffffffffffffffffffffffffffffffe0169290920160200192915050565b60006020808301818452808551808352604092508286019150828160051b87010184880160005b83811015611ab7577fffffffffffffffffffffffffffffffffffffffffffffffffffffffffffffffc0898403018552815160e073ffffffffffffffffffffffffffffffffffffffff82511685528882015189860152878201518886015260608083015181870152506080808301518282880152611a7883880182611967565b9250505060a0808301511515818701525060c08083015192508582038187015250611aa38183611967565b9689019694505050908601906001016119f9565b509098975050505050505050565b60008083601f840112611ad757600080fd5b50813567ffffffffffffffff811115611aef57600080fd5b602083019150836020828501011115611b0757600080fd5b9250929050565b600080600060408486031215611b2357600080fd5b83359250602084013567ffffffffffffffff811115611b4157600080fd5b611b4d86828701611ac5565b9497909650939450505050565b60008060008060408587031215611b7057600080fd5b843567ffffffffffffffff80821115611b8857600080fd5b611b9488838901611ac5565b90965094506020870135915080821115611bad57600080fd5b50611bba87828801611ac5565b95989497509550505050565b60008060008060008060006080888a031215611be157600080fd5b873567ffffffffffffffff80821115611bf957600080fd5b611c058b838c01611ac5565b909950975060208a0135915080821115611c1e57600080fd5b611c2a8b838c01611ac5565b909750955060408a0135945060608a0135915080821115611c4a57600080fd5b50611c578a828b01611ac5565b989b979a50959850939692959293505050565b600060208284031215611c7c57600080fd5b6102aa82611912565b606081526000611c986060830186611967565b8281036020840152611caa8186611967565b915050826040830152949350505050565b60008060008060608587031215611cd157600080fd5b8435935060208501359250604085013567ffffffffffffffff811115611cf657600080fd5b611bba87828801611ac5565b600060208284031215611d1457600080fd5b5035919050565b73ffffffffffffffffffffffffffffffffffffffff8816815286602082015285604082015284606082015260e060808201526000611d5c60e0830186611967565b84151560a084015282810360c0840152611d768185611967565b9a9950505050505050505050565b60008060408385031215611d9757600080fd5b50508035926020909101359150565b600181811c90821680611dba57607f821691505b60208210811415611df4577f4e487b7100000000000000000000000000000000000000000000000000000000600052602260045260246000fd5b50919050565b8183823760009101908152919050565b600080835481600182811c915080831680611e2657607f831692505b6020808410821415611e5f577f4e487b710000000000000000000000000000000000000000000000000000000086526022600452602486fd5b818015611e735760018114611ea257611ecf565b7fffffffffffffffffffffffffffffffffffffffffffffffffffffffffffffff00861689528489019650611ecf565b60008a81526020902060005b86811015611ec75781548b820152908501908301611eae565b505084890196505b509498975050505050505050565b7f4e487b7100000000000000000000000000000000000000000000000000000000600052601160045260246000fd5b60007fffffffffffffffffffffffffffffffffffffffffffffffffffffffffffffffff821415611f3e57611f3e611edd565b5060010190565b600081611f5457611f54611edd565b507fffffffffffffffffffffffffffffffffffffffffffffffffffffffffffffffff0190565b7f4e487b7100000000000000000000000000000000000000000000000000000000600052604160045260246000fd5b7f4e487b7100000000000000000000000000000000000000000000000000000000600052603260045260246000fd5b600082821015611fea57611fea611edd565b50039056fea2646970667358221220ff73810983ab4e0bf50b3f3d75a239c12919a0bd8d6a65fca3e772fafd229cb664736f6c634300080c0033",
  "linkReferences": {},
  "deployedLinkReferences": {}
}